:020000040000fa
:08000000009c04000200000056
:020000040000fa
:040400000000fe00fa
:020000040000fa
:020000040005f5
:0457f800ae7a000085
:020000040000fa
:020000040005f5
:0457fc00763e0000f5
:020000040000fa
:1000080000020000000200000002000000020000e0
:1000180000020000000200000002000000020000d0
:1000280000020000000200000002000000020000c0
:1000380000020000000200000002000000020000b0
:020000040000fa
:020000040000fa
:020000040005f5
:103800002f8c2000090020003035800080ff8800c8
:10381000b036800090ff880040358000a0ff88000f
:1038200060368000b0ff8800c0368000c0ff88008e
:10383000c0168000d0ff8800e0168000e0ff8800fe
:10384000a606a900a626a900a646a900a666a80065
:10385000a686a800a6a6a900d606a800d626a90076
:10386000d646a800d666a900d686a900d6a6a90085
:10387000a806a900a826a900a846a800a866a8002e
:10388000a886a800a8a6a900cd06a800cd26a80055
:10389000cd46a800cd66a900cd86a900cda6a90079
:1038a000d906a900d926a900d946a900d966a80039
:1038b000d986a900d9a6a900f0ff2f0060198800b9
:1038c00050198800f1fb2f00802d20001088600027
:1038d00001042000c02d200010887000ff3f090067
:1038e00000000000c0132000101288000000280013
:1038f000001288000006eb003062a80020022000c1
:10390000c011880031e2a8003342a8007c00070003
:10391000100cb10087003a00e00e20007200070092
:103920001000200070000700100320006e00070048
:10393000b00420006c0007000007eb0070000700d7
:10394000900188006e00070003e1b7006c000700db
:1039500002e1b7000281bf00800278000002780017
:103960006700070080067800650007008001780086
:103970000280200062000700005978008301e900fe
:10398000fcff3a003200e2000d003a000201e200c2
:103990000b003a000280200040c0b30000597800bc
:1039a00000c0b30000597800c0c9b30000597800c6
:1039b0000059eb0020c0b300005978000059eb001b
:1039c0000e04e00003003200e0042000460007007f
:1039d000d9ff3700028020000d00a7000500370046
:1039e0000d10a70005003700500520003e0007001d
:1039f000d1ff3700fcff2f00cdff37000000000093
:103a000091018000050078000808200011000900dd
:103a10004888d800885320000800e10006003300e1
:103a2000f85320000040e1000300330000052000af
:103a30002d000700c0ff3700050278000c00a6002b
:103a400004003700850abb00200424001b00070087
:103a50000006eb0003042000b2cabb00b25abb0050
:103a6000b25abb008301e900fbff3a0010002400ba
:103a700012000700030420000280200014c0ba00d6
:103a80003204e1000a003a003440ba003204e10096
:103a900007003a003440ba003204e10004003a0062
:103aa0008301e900f5ff3a0049232100a0ff370018
:103ab000600520000c0007009fff3700003b8800d6
:103ac00050052000303b8800a00a2000303b8800d1
:103ad00061e7a800000000000000000061e7af00ff
:103ae000feff37000000060034a2b700000000000f
:103af000000000003302ae00feff370000000600a9
:103b00008a0620008005eb000060fe003202ae0055
:103b100003003700b01180000007470000000600d6
:103b20008b05e900f8ff3a000a05e900f5ff3a00c5
:103b30002f8c20002000200090018800e0bf290089
:103b40009000ba00f0ff2f000100e10001003a00f0
:103b50001300070080ff80003035880090ff800050
:103b6000b0368800a0ff800040358800b0ff80009c
:103b700060368800c0ff8000c0368800d0ff80001b
:103b8000c0168800e0ff8000e01688004023210076
:103b90000900e1008e00320017ff370016ff3700e2
:103ba000f1fb2f00c02d20001088600030002000a5
:103bb000401288007e000700c001200040128800eb
:103bc0007b000700000020004012880078000700fa
:103bd0000000200040128800750007000e00200041
:103be0000a0020000b0020002100200000c0290056
:103bf0004400de00cc08dd00008170008201780006
:103c0000fcff2f00fdff2f0020042400003b880054
:103c10009b0188000a0dbb0061e7af00feff370083
:103c20000500fc0050052000303b8800a10a200060
:103c3000313b880061e7a8000000000000000000a0
:103c4000840020000504200010002400003b8800b0
:103c50009b018800a00a2000401288005400070041
:103c600001037800000f2000401288005000070078
:103c70008103780050052000401288004c000700a6
:103c800001047800c83bdd0086837300f10f20003b
:103c900001046400f0ff2f000c00e10008003a006e
:103ca00007067800f0ff2f000c00e10001003a0049
:103cb0000cc0290007c02900480020000a00370076
:103cc000f0ff2f000d00e10007003a0087067800a2
:103cd000f0ff2f000d00e10001003a002d00200050
:103ce00027002000080020004460de00cc68dd00d2
:103cf000008170000310e10010003200200020005d
:103d00000058e10005003a00c0bf29000050e10062
:103d100002003a008c0378004800200020002000b8
:103d20000058e10005003a00e0bf29000050e10022
:103d300002003a008d03780008002000070dbb0048
:103d4000089dbb000a00e00002003a008b05e80075
:103d50009b0188008502e900beff3a0061e7af00e1
:103d6000feff37000500fc0050052000303b8800b6
:103d7000a00a2000303b880061e7a8000000000096
:103d8000000000000402e900aeff3a004450de00eb
:103d9000cc58dd00008170000310e1009aff35006f
:103da00001042000c02d20001088700000000600d3
:103db0004022af00feff37004002ae00feff37009a
:103dc00041128000f00f200080806000000006009b
:103dd00020042400003b880020002000900188007f
:103de00000002a000008bb000500fc005005200070
:103df000303b8800a10a2000313b880061e7a80021
:103e0000000000000000000061e7af00feff370087
:103e100020042400003b880020002000900188003e
:103e200000402a000008bb000500fc0050052000ef
:103e3000303b8800a10a2000313b880061e7a800e0
:103e40000000000000000000000080000012880058
:043e500069fe3700d0
:020000040000fa
:020000040005f5
:0837f8000000ff000000ff00cb
:020000040000fa
:020000040005f5
:103e540000080000c2000000000000000000000094
:00000001FF
